{
  "contractName": "Battleships",
  "abi": [
    {
      "constant": true,
      "inputs": [
        {
          "name": "",
          "type": "bytes32"
        }
      ],
      "name": "openGameIds",
      "outputs": [
        {
          "name": "",
          "type": "bytes32"
        }
      ],
      "payable": false,
      "stateMutability": "view",
      "type": "function"
    },
    {
      "constant": false,
      "inputs": [
        {
          "name": "gameId",
          "type": "bytes32"
        },
        {
          "name": "value",
          "type": "uint256"
        }
      ],
      "name": "setPlayerHand",
      "outputs": [],
      "payable": false,
      "stateMutability": "nonpayable",
      "type": "function"
    },
    {
      "constant": true,
      "inputs": [],
      "name": "head",
      "outputs": [
        {
          "name": "",
          "type": "bytes32"
        }
      ],
      "payable": false,
      "stateMutability": "view",
      "type": "function"
    },
    {
      "constant": true,
      "inputs": [
        {
          "name": "",
          "type": "address"
        },
        {
          "name": "",
          "type": "bytes32"
        }
      ],
      "name": "gamesOfPlayers",
      "outputs": [
        {
          "name": "",
          "type": "bytes32"
        }
      ],
      "payable": false,
      "stateMutability": "view",
      "type": "function"
    },
    {
      "constant": true,
      "inputs": [],
      "name": "getOpenGameIds",
      "outputs": [
        {
          "name": "",
          "type": "bytes32[]"
        }
      ],
      "payable": false,
      "stateMutability": "view",
      "type": "function"
    },
    {
      "constant": false,
      "inputs": [
        {
          "name": "gameId",
          "type": "bytes32"
        },
        {
          "name": "player",
          "type": "address"
        }
      ],
      "name": "getPlayerHand",
      "outputs": [
        {
          "name": "",
          "type": "uint256"
        }
      ],
      "payable": false,
      "stateMutability": "nonpayable",
      "type": "function"
    },
    {
      "constant": true,
      "inputs": [
        {
          "name": "",
          "type": "address"
        }
      ],
      "name": "gamesOfPlayersHeads",
      "outputs": [
        {
          "name": "",
          "type": "bytes32"
        }
      ],
      "payable": false,
      "stateMutability": "view",
      "type": "function"
    },
    {
      "constant": true,
      "inputs": [
        {
          "name": "player",
          "type": "address"
        }
      ],
      "name": "getGamesOfPlayer",
      "outputs": [
        {
          "name": "",
          "type": "bytes32[]"
        }
      ],
      "payable": false,
      "stateMutability": "view",
      "type": "function"
    },
    {
      "constant": true,
      "inputs": [
        {
          "name": "",
          "type": "bytes32"
        }
      ],
      "name": "games",
      "outputs": [
        {
          "name": "player1",
          "type": "address"
        },
        {
          "name": "player2",
          "type": "address"
        },
        {
          "name": "player1Alias",
          "type": "string"
        },
        {
          "name": "player2Alias",
          "type": "string"
        },
        {
          "name": "nextPlayer",
          "type": "address"
        },
        {
          "name": "winner",
          "type": "address"
        },
        {
          "name": "started",
          "type": "bool"
        },
        {
          "name": "ended",
          "type": "bool"
        },
        {
          "name": "pot",
          "type": "uint256"
        },
        {
          "name": "player1Winnings",
          "type": "uint256"
        },
        {
          "name": "player2Winnings",
          "type": "uint256"
        },
        {
          "name": "player1Hand",
          "type": "uint256"
        },
        {
          "name": "player2Hand",
          "type": "uint256"
        }
      ],
      "payable": false,
      "stateMutability": "view",
      "type": "function"
    },
    {
      "anonymous": false,
      "inputs": [
        {
          "indexed": true,
          "name": "gameId",
          "type": "bytes32"
        },
        {
          "indexed": true,
          "name": "player1",
          "type": "address"
        },
        {
          "indexed": false,
          "name": "player1Alias",
          "type": "string"
        },
        {
          "indexed": false,
          "name": "pot",
          "type": "uint256"
        }
      ],
      "name": "GameInitialized",
      "type": "event"
    },
    {
      "anonymous": false,
      "inputs": [
        {
          "indexed": true,
          "name": "gameId",
          "type": "bytes32"
        },
        {
          "indexed": true,
          "name": "player1",
          "type": "address"
        },
        {
          "indexed": false,
          "name": "player1Alias",
          "type": "string"
        },
        {
          "indexed": true,
          "name": "player2",
          "type": "address"
        },
        {
          "indexed": false,
          "name": "player2Alias",
          "type": "string"
        },
        {
          "indexed": false,
          "name": "pot",
          "type": "uint256"
        }
      ],
      "name": "GameJoined",
      "type": "event"
    },
    {
      "anonymous": false,
      "inputs": [
        {
          "indexed": false,
          "name": "turnTaker",
          "type": "address"
        }
      ],
      "name": "TurnTaken",
      "type": "event"
    },
    {
      "anonymous": false,
      "inputs": [
        {
          "indexed": true,
          "name": "gameId",
          "type": "bytes32"
        }
      ],
      "name": "GameEnded",
      "type": "event"
    },
    {
      "anonymous": false,
      "inputs": [
        {
          "indexed": true,
          "name": "gameId",
          "type": "bytes32"
        },
        {
          "indexed": true,
          "name": "player",
          "type": "address"
        }
      ],
      "name": "GameClosed",
      "type": "event"
    },
    {
      "anonymous": false,
      "inputs": [
        {
          "indexed": true,
          "name": "gameId",
          "type": "bytes32"
        },
        {
          "indexed": false,
          "name": "timeoutStarted",
          "type": "uint256"
        },
        {
          "indexed": false,
          "name": "timeoutState",
          "type": "int8"
        }
      ],
      "name": "GameTimeoutStarted",
      "type": "event"
    },
    {
      "anonymous": false,
      "inputs": [
        {
          "indexed": true,
          "name": "gameId",
          "type": "bytes32"
        }
      ],
      "name": "GameDrawOfferRejected",
      "type": "event"
    },
    {
      "constant": false,
      "inputs": [
        {
          "name": "player1Alias",
          "type": "string"
        },
        {
          "name": "playerHand",
          "type": "uint256"
        }
      ],
      "name": "initGame",
      "outputs": [
        {
          "name": "",
          "type": "bytes32"
        }
      ],
      "payable": true,
      "stateMutability": "payable",
      "type": "function"
    },
    {
      "constant": false,
      "inputs": [
        {
          "name": "player1Alias",
          "type": "string"
        }
      ],
      "name": "initGame",
      "outputs": [
        {
          "name": "",
          "type": "bytes32"
        }
      ],
      "payable": true,
      "stateMutability": "payable",
      "type": "function"
    },
    {
      "constant": false,
      "inputs": [
        {
          "name": "gameId",
          "type": "bytes32"
        },
        {
          "name": "player2Alias",
          "type": "string"
        },
        {
          "name": "playerHand",
          "type": "uint256"
        }
      ],
      "name": "joinGame",
      "outputs": [],
      "payable": true,
      "stateMutability": "payable",
      "type": "function"
    },
    {
      "constant": false,
      "inputs": [
        {
          "name": "gameId",
          "type": "bytes32"
        },
        {
          "name": "player2Alias",
          "type": "string"
        }
      ],
      "name": "joinGame",
      "outputs": [],
      "payable": true,
      "stateMutability": "payable",
      "type": "function"
    },
    {
      "constant": false,
      "inputs": [
        {
          "name": "gameId",
          "type": "bytes32"
        }
      ],
      "name": "takeTurn",
      "outputs": [],
      "payable": false,
      "stateMutability": "nonpayable",
      "type": "function"
    }
  ],
  "bytecode": "0x608060405234801561001057600080fd5b506120fb806100206000396000f3006080604052600436106100d0576000357c0100000000000000000000000000000000000000000000000000000000900463ffffffff16806306230e41146100d55780630a277d28146101575780630b51c2d5146101a457806311d022f81461021c5780638f7dcfa314610257578063a8608fc41461028a578063b529a81c146102f7578063c732ebbf14610328578063d5fdb3341461039c578063e4c2b0b414610408578063e6378d3a1461046d578063e6de139f146104d7578063f0b05bfd14610536578063f579f882146105ce575b600080fd5b610139600480360381019080803590602001908201803590602001908080601f0160208091040260200160405190810160405280939291908181526020018383808284378201915050505050509192919290803590602001909291905050506107e9565b60405180826000191660001916815260200191505060405180910390f35b34801561016357600080fd5b506101866004803603810190808035600019169060200190929190505050610925565b60405180826000191660001916815260200191505060405180910390f35b6101fe600480360381019080803590602001908201803590602001908080601f016020809104026020016040519081016040528093929190818152602001838380828437820191505050505050919291929050505061093d565b60405180826000191660001916815260200191505060405180910390f35b34801561022857600080fd5b50610255600480360381019080803560001916906020019092919080359060200190929190505050610c58565b005b34801561026357600080fd5b5061026c610d84565b60405180826000191660001916815260200191505060405180910390f35b34801561029657600080fd5b506102d9600480360381019080803573ffffffffffffffffffffffffffffffffffffffff1690602001909291908035600019169060200190929190505050610d8a565b60405180826000191660001916815260200191505060405180910390f35b34801561030357600080fd5b506103266004803603810190808035600019169060200190929190505050610daf565b005b61039a6004803603810190808035600019169060200190929190803590602001908201803590602001908080601f016020809104026020016040519081016040528093929190818152602001838380828437820191505050505050919291929080359060200190929190505050610e1e565b005b3480156103a857600080fd5b506103b16110a7565b6040518080602001828103825283818151815260200191508051906020019060200280838360005b838110156103f45780820151818401526020810190506103d9565b505050509050019250505060405180910390f35b34801561041457600080fd5b506104576004803603810190808035600019169060200190929190803573ffffffffffffffffffffffffffffffffffffffff169060200190929190505050611198565b6040518082815260200191505060405180910390f35b6104d56004803603810190808035600019169060200190929190803590602001908201803590602001908080601f01602080910402602001604051908101604052809392919081815260200183838082843782019150505050505091929192905050506112cd565b005b3480156104e357600080fd5b50610518600480360381019080803573ffffffffffffffffffffffffffffffffffffffff169060200190929190505050611855565b60405180826000191660001916815260200191505060405180910390f35b34801561054257600080fd5b50610577600480360381019080803573ffffffffffffffffffffffffffffffffffffffff16906020019092919050505061186d565b6040518080602001828103825283818151815260200191508051906020019060200280838360005b838110156105ba57808201518184015260208101905061059f565b505050509050019250505060405180910390f35b3480156105da57600080fd5b506105fd6004803603810190808035600019169060200190929190505050611a1b565b604051808e73ffffffffffffffffffffffffffffffffffffffff1673ffffffffffffffffffffffffffffffffffffffff1681526020018d73ffffffffffffffffffffffffffffffffffffffff1673ffffffffffffffffffffffffffffffffffffffff16815260200180602001806020018c73ffffffffffffffffffffffffffffffffffffffff1673ffffffffffffffffffffffffffffffffffffffff1681526020018b73ffffffffffffffffffffffffffffffffffffffff1673ffffffffffffffffffffffffffffffffffffffff1681526020018a1515151581526020018915151515815260200188815260200187815260200186815260200185815260200184815260200183810383528e818151815260200191508051906020019080838360005b8381101561073b578082015181840152602081019050610720565b50505050905090810190601f1680156107685780820380516001836020036101000a031916815260200191505b5083810382528d818151815260200191508051906020019080838360005b838110156107a1578082015181840152602081019050610786565b50505050905090810190601f1680156107ce5780820380516001836020036101000a031916815260200191505b509f5050505050505050505050505050505060405180910390f35b6000806107f58461093d565b90506108018184610c58565b600080826000191660001916815260200190815260200160002060000160009054906101000a900473ffffffffffffffffffffffffffffffffffffffff1673ffffffffffffffffffffffffffffffffffffffff1681600019167fabc2d654522956bfc87dc4ab780e2da3f1d5dec7d4281d5d0f558a2169a91201866000808660001916600019168152602001908152602001600020600601546040518080602001838152602001828103825284818151815260200191508051906020019080838360005b838110156108e05780820151818401526020810190506108c5565b50505050905090810190601f16801561090d5780820380516001836020036101000a031916815260200191505b50935050505060405180910390a38091505092915050565b60016020528060005260406000206000915090505481565b6000803343604051602001808373ffffffffffffffffffffffffffffffffffffffff1673ffffffffffffffffffffffffffffffffffffffff166c01000000000000000000000000028152601401828152602001925050506040516020818303038152906040526040518082805190602001908083835b6020831015156109d857805182526020820191506020810190506020830392506109b3565b6001836020036101000a038019825116818451168082178552505050505050905001915050604051809103902090506000806000836000191660001916815260200190815260200160002060050160156101000a81548160ff02191690831515021790555033600080836000191660001916815260200190815260200160002060000160006101000a81548173ffffffffffffffffffffffffffffffffffffffff021916908373ffffffffffffffffffffffffffffffffffffffff1602179055508260008083600019166000191681526020019081526020016000206002019080519060200190610aca92919061202a565b506000806000836000191660001916815260200190815260200160002060070181905550600080600083600019166000191681526020019081526020016000206008018190555060023402600080836000191660001916815260200190815260200160002060060181905550600460003373ffffffffffffffffffffffffffffffffffffffff1673ffffffffffffffffffffffffffffffffffffffff16815260200190815260200160002054600360003373ffffffffffffffffffffffffffffffffffffffff1673ffffffffffffffffffffffffffffffffffffffff16815260200190815260200160002060008360001916600019168152602001908152602001600020816000191690555080600460003373ffffffffffffffffffffffffffffffffffffffff1673ffffffffffffffffffffffffffffffffffffffff16815260200190815260200160002081600019169055506002546001600083600019166000191681526020019081526020016000208160001916905550806002816000191690555080915050919050565b600080836000191660001916815260200190815260200160002060000160009054906101000a900473ffffffffffffffffffffffffffffffffffffffff1673ffffffffffffffffffffffffffffffffffffffff163373ffffffffffffffffffffffffffffffffffffffff161415610cec57806000808460001916600019168152602001908152602001600020600901819055505b600080836000191660001916815260200190815260200160002060010160009054906101000a900473ffffffffffffffffffffffffffffffffffffffff1673ffffffffffffffffffffffffffffffffffffffff163373ffffffffffffffffffffffffffffffffffffffff161415610d8057806000808460001916600019168152602001908152602001600020600a01819055505b5050565b60025481565b6003602052816000526040600020602052806000526040600020600091509150505481565b610db881611c4b565b7fa90259e17671ee2b7d6022573ea4592e23a88abbb9844e138c15501eb49324ba33604051808273ffffffffffffffffffffffffffffffffffffffff1673ffffffffffffffffffffffffffffffffffffffff16815260200191505060405180910390a150565b610e2883836112cd565b610e328382610c58565b33600080856000191660001916815260200190815260200160002060040160006101000a81548173ffffffffffffffffffffffffffffffffffffffff021916908373ffffffffffffffffffffffffffffffffffffffff160217905550600080846000191660001916815260200190815260200160002060010160009054906101000a900473ffffffffffffffffffffffffffffffffffffffff1673ffffffffffffffffffffffffffffffffffffffff16600080856000191660001916815260200190815260200160002060000160009054906101000a900473ffffffffffffffffffffffffffffffffffffffff1673ffffffffffffffffffffffffffffffffffffffff1684600019167fe1d604147533028348c88bafb82596a61fd5c8ed3aaf875a8bc589d32ef83e676000808860001916600019168152602001908152602001600020600201866000808a600019166000191681526020019081526020016000206006015460405180806020018060200184815260200183810383528681815460018160011615610100020316600290048152602001915080546001816001161561010002031660029004801561102b5780601f106110005761010080835404028352916020019161102b565b820191906000526020600020905b81548152906001019060200180831161100e57829003601f168201915b5050838103825285818151815260200191508051906020019080838360005b8381101561106557808201518184015260208101905061104a565b50505050905090810190601f1680156110925780820380516001836020036101000a031916815260200191505b509550505050505060405180910390a4505050565b606060008060606000806000945060025493505b600060010284600019161415156110f75784806001019550506001600085600019166000191681526020019081526020016000205493506110bb565b846040519080825280602002602001820160405280156111265781602001602082028038833980820191505090505b5092506002549150600090505b8481101561118d5781838281518110151561114a57fe5b9060200190602002019060001916908160001916815250506001600083600019166000191681526020019081526020016000205491508080600101915050611133565b829550505050505090565b6000806000846000191660001916815260200190815260200160002060000160009054906101000a900473ffffffffffffffffffffffffffffffffffffffff1673ffffffffffffffffffffffffffffffffffffffff168273ffffffffffffffffffffffffffffffffffffffff1614156112305760008084600019166000191681526020019081526020016000206009015490506112c7565b600080846000191660001916815260200190815260200160002060010160009054906101000a900473ffffffffffffffffffffffffffffffffffffffff1673ffffffffffffffffffffffffffffffffffffffff168273ffffffffffffffffffffffffffffffffffffffff1614156112c6576000808460001916600019168152602001908152602001600020600a015490506112c7565b5b92915050565b60003373ffffffffffffffffffffffffffffffffffffffff16600080856000191660001916815260200190815260200160002060000160009054906101000a900473ffffffffffffffffffffffffffffffffffffffff1673ffffffffffffffffffffffffffffffffffffffff16141515156113b0576040517f08c379a000000000000000000000000000000000000000000000000000000000815260040180806020018281038252601d8152602001807f796f752063616e2774206a6f696e20796f7572206f776e2067616d652100000081525060200191505060405180910390fd5b6000806000856000191660001916815260200190815260200160002060010160009054906101000a900473ffffffffffffffffffffffffffffffffffffffff1673ffffffffffffffffffffffffffffffffffffffff1614151561147b576040517f08c379a00000000000000000000000000000000000000000000000000000000081526004018080602001828103825260118152602001807f746869732067616d652069732066756c6c00000000000000000000000000000081525060200191505060405180910390fd5b6000808460001916600019168152602001908152602001600020600601543414151561150f576040517f08c379a00000000000000000000000000000000000000000000000000000000081526004018080602001828103825260198152602001807f796f75206e65656420746f206d6174636820746865206265740000000000000081525060200191505060405180910390fd5b3460008085600019166000191681526020019081526020016000206006016000828254019250508190555033600080856000191660001916815260200190815260200160002060010160006101000a81548173ffffffffffffffffffffffffffffffffffffffff021916908373ffffffffffffffffffffffffffffffffffffffff16021790555081600080856000191660001916815260200190815260200160002060030190805190602001906115c792919061202a565b50600460003373ffffffffffffffffffffffffffffffffffffffff1673ffffffffffffffffffffffffffffffffffffffff16815260200190815260200160002054600360003373ffffffffffffffffffffffffffffffffffffffff1673ffffffffffffffffffffffffffffffffffffffff16815260200190815260200160002060008560001916600019168152602001908152602001600020816000191690555082600460003373ffffffffffffffffffffffffffffffffffffffff1673ffffffffffffffffffffffffffffffffffffffff16815260200190815260200160002081600019169055508260001916600254600019161415611717576001600060025460001916600019168152602001908152602001600020546002816000191690555060006001026001600085600019166000191681526020019081526020016000208160001916905550611850565b60025490505b7f656e64000000000000000000000000000000000000000000000000000000000081600019161415801561179057507f656e640000000000000000000000000000000000000000000000000000000000600160008360001916600019168152602001908152602001600020546000191614155b1561184f5782600019166001600083600019166000191681526020019081526020016000205460001916141561182c576001600084600019166000191681526020019081526020016000205460016000836000191660001916815260200190815260200160002081600019169055506000600102600160008560001916600019168152602001908152602001600020816000191690555061184f565b60016000826000191660001916815260200190815260200160002054905061171d565b5b505050565b60046020528060005260406000206000915090505481565b606060008060006060600080600460008973ffffffffffffffffffffffffffffffffffffffff1673ffffffffffffffffffffffffffffffffffffffff168152602001908152602001600020549550600094508593505b6000600102846000191614151561193c578480600101955050600360008973ffffffffffffffffffffffffffffffffffffffff1673ffffffffffffffffffffffffffffffffffffffff168152602001908152602001600020600085600019166000191681526020019081526020016000205493506118c3565b8460405190808252806020026020018201604052801561196b5781602001602082028038833980820191505090505b509250859150600090505b84811015611a0d5781838281518110151561198d57fe5b906020019060200201906000191690816000191681525050600360008973ffffffffffffffffffffffffffffffffffffffff1673ffffffffffffffffffffffffffffffffffffffff168152602001908152602001600020600083600019166000191681526020019081526020016000205491508080600101915050611976565b829650505050505050919050565b60006020528060005260406000206000915090508060000160009054906101000a900473ffffffffffffffffffffffffffffffffffffffff16908060010160009054906101000a900473ffffffffffffffffffffffffffffffffffffffff1690806002018054600181600116156101000203166002900480601f016020809104026020016040519081016040528092919081815260200182805460018160011615610100020316600290048015611b135780601f10611ae857610100808354040283529160200191611b13565b820191906000526020600020905b815481529060010190602001808311611af657829003601f168201915b505050505090806003018054600181600116156101000203166002900480601f016020809104026020016040519081016040528092919081815260200182805460018160011615610100020316600290048015611bb15780601f10611b8657610100808354040283529160200191611bb1565b820191906000526020600020905b815481529060010190602001808311611b9457829003601f168201915b5050505050908060040160009054906101000a900473ffffffffffffffffffffffffffffffffffffffff16908060050160009054906101000a900473ffffffffffffffffffffffffffffffffffffffff16908060050160149054906101000a900460ff16908060050160159054906101000a900460ff169080600601549080600701549080600801549080600901549080600a015490508d565b3373ffffffffffffffffffffffffffffffffffffffff16600080836000191660001916815260200190815260200160002060000160009054906101000a900473ffffffffffffffffffffffffffffffffffffffff1673ffffffffffffffffffffffffffffffffffffffff161480611d2a57503373ffffffffffffffffffffffffffffffffffffffff16600080836000191660001916815260200190815260200160002060010160009054906101000a900473ffffffffffffffffffffffffffffffffffffffff1673ffffffffffffffffffffffffffffffffffffffff16145b1515611d9e576040517f08c379a00000000000000000000000000000000000000000000000000000000081526004018080602001828103825260158152602001807f746869732069736e277420796f75722067616d6521000000000000000000000081525060200191505060405180910390fd5b3373ffffffffffffffffffffffffffffffffffffffff16600080836000191660001916815260200190815260200160002060040160009054906101000a900473ffffffffffffffffffffffffffffffffffffffff1673ffffffffffffffffffffffffffffffffffffffff16141515611e7e576040517f08c379a00000000000000000000000000000000000000000000000000000000081526004018080602001828103825260128152602001807f697473206e6f7420796f7572207475726e21000000000000000000000000000081525060200191505060405180910390fd5b600080826000191660001916815260200190815260200160002060000160009054906101000a900473ffffffffffffffffffffffffffffffffffffffff1673ffffffffffffffffffffffffffffffffffffffff163373ffffffffffffffffffffffffffffffffffffffff161415611f8d57600080826000191660001916815260200190815260200160002060010160009054906101000a900473ffffffffffffffffffffffffffffffffffffffff16600080836000191660001916815260200190815260200160002060040160006101000a81548173ffffffffffffffffffffffffffffffffffffffff021916908373ffffffffffffffffffffffffffffffffffffffff160217905550612027565b600080826000191660001916815260200190815260200160002060000160009054906101000a900473ffffffffffffffffffffffffffffffffffffffff16600080836000191660001916815260200190815260200160002060040160006101000a81548173ffffffffffffffffffffffffffffffffffffffff021916908373ffffffffffffffffffffffffffffffffffffffff1602179055505b50565b828054600181600116156101000203166002900490600052602060002090601f016020900481019282601f1061206b57805160ff1916838001178555612099565b82800160010185558215612099579182015b8281111561209857825182559160200191906001019061207d565b5b5090506120a691906120aa565b5090565b6120cc91905b808211156120c85760008160009055506001016120b0565b5090565b905600a165627a7a72305820d471cbcbf9b9817e456583e6fda211fbafa234fe719ba72d29842e3e032c326e0029",
  "source": "pragma solidity ^0.4.2;\n\ncontract TurnBasedGame {\n\n    event GameEnded(bytes32 indexed gameId);\n    event GameClosed(bytes32 indexed gameId, address indexed player);\n    event GameTimeoutStarted(bytes32 indexed gameId, uint timeoutStarted, int8 timeoutState);\n    // GameDrawOfferRejected: notification that a draw of the currently turning player\n    //                        is rejected by the waiting player\n    event GameDrawOfferRejected(bytes32 indexed gameId);\n\n\n    struct Game {\n        address player1;\n        address player2;\n        string player1Alias;\n        string player2Alias;\n        address nextPlayer; //the next player who can take a turn\n        address winner;\n        bool started;\n        bool ended;\n        uint pot; // What this game is worth: ether paid into the game\n        uint player1Winnings;\n        uint player2Winnings;\n        uint player1Hand;\n      //  bool player1Ready;\n        uint player2Hand;\n       // bool player2Ready;\n    }\n\n    mapping (bytes32 => Game) public games;\n\n    // stack of open game ids\n    mapping (bytes32 => bytes32) public openGameIds;\n    bytes32 public head;\n\n    // stack of games of players\n    mapping (address => mapping (bytes32 => bytes32)) public gamesOfPlayers;\n    mapping (address => bytes32) public gamesOfPlayersHeads;\n\n    function getGamesOfPlayer(address player) constant public returns (bytes32[]) {\n        bytes32 playerHead = gamesOfPlayersHeads[player];\n        uint counter = 0;\n        for (bytes32 ga = playerHead; ga != 0; ga = gamesOfPlayers[player][ga]) {\n            counter++;\n        }\n        bytes32[] memory data = new bytes32[](counter);\n        bytes32 currentGame = playerHead;\n        for (uint i = 0; i < counter; i++) {\n            data[i] = currentGame;\n            currentGame = gamesOfPlayers[player][currentGame];\n        }\n        return data;\n    }\n\n    function getOpenGameIds() constant public returns (bytes32[]) {\n        uint counter = 0;\n        for (bytes32 ga = head; ga != 0; ga = openGameIds[ga]) {\n            counter++;\n        }\n        bytes32[] memory data = new bytes32[](counter);\n        bytes32 currentGame = head;\n        for (uint i = 0; i < counter; i++) {\n            data[i] = currentGame;\n            currentGame = openGameIds[currentGame];\n        }\n        return data;\n    }\n\n\n    function initGame(string player1Alias) public payable returns (bytes32) {\n\n        // Generate game id based on player's addresses and current block number\n        bytes32 gameId = keccak256(abi.encodePacked(msg.sender,block.number));\n\n        games[gameId].ended = false;\n\n        // Initialize participants\n        games[gameId].player1 = msg.sender;\n        games[gameId].player1Alias = player1Alias;\n        games[gameId].player1Winnings = 0;\n        games[gameId].player2Winnings = 0;\n\n        // Initialize game value\n        games[gameId].pot = msg.value * 2;\n\n        // Add game to gamesOfPlayers\n        gamesOfPlayers[msg.sender][gameId] = gamesOfPlayersHeads[msg.sender];\n        gamesOfPlayersHeads[msg.sender] = gameId;\n\n        // Add to openGameIds\n        openGameIds[gameId] = head;\n        head = gameId;\n\n        return gameId;\n    }\n\n\n    function setPlayerHand(bytes32 gameId, uint value) public {\n        if (msg.sender == games[gameId].player1)\n            //require(games[gameId].player1Ready == false, \"you've already set your hand\");\n            games[gameId].player1Hand = value;\n           // games[gameId].player1Ready = true;\n        if (msg.sender == games[gameId].player2)\n            //require(games[gameId].player1Ready == false, \"you've already set your hand\");\n            games[gameId].player2Hand = value;\n           // games[gameId].player2Ready = true;\n    }\n\n    function getPlayerHand(bytes32 gameId, address player) public returns (uint) {\n        if (player == games[gameId].player1) {\n            return games[gameId].player1Hand;\n        }\n        if (player == games[gameId].player2) {\n            return games[gameId].player2Hand;\n        }\n    }\n\n    /**\n     * Join an initialized game\n     * bytes32 gameId: ID of the game to join\n     * string player2Alias: Alias of the player that is joining\n     */\n    function joinGame(bytes32 gameId, string player2Alias) public payable {\n\n        //check that this game was not intitalized by joiner!\n        require(games[gameId].player1 != msg.sender, \"you can't join your own game!\");\n\n        // Check that this game does not have a second player yet\n        require(games[gameId].player2 == 0, \"this game is full\");\n\n        // require second player to match the bet.\n        require(msg.value == games[gameId].pot, \"you need to match the bet\");\n\n        games[gameId].pot += msg.value;\n\n        games[gameId].player2 = msg.sender;\n        games[gameId].player2Alias = player2Alias;\n\n        // Add game to gamesOfPlayers\n        gamesOfPlayers[msg.sender][gameId] = gamesOfPlayersHeads[msg.sender];\n        gamesOfPlayersHeads[msg.sender] = gameId;\n\n        // Remove from openGameIds\n        if (head == gameId) {\n            head = openGameIds[head];\n            openGameIds[gameId] = bytes32(0);\n        } else {\n            for (bytes32 g = head; g != 'end' && openGameIds[g] != 'end'; g = openGameIds[g]) {\n                if (openGameIds[g] == gameId) {\n                    openGameIds[g] = openGameIds[gameId];\n                    openGameIds[gameId] = bytes32(0);\n                    break;\n                }\n            }\n        }\n\n\n    }\n    function takeTurn(bytes32 gameId) public {\n        require(games[gameId].player1 == msg.sender || games[gameId].player2 == msg.sender, \"this isn't your game!\");\n        require(games[gameId].nextPlayer == msg.sender, \"its not your turn!\");\n\n        if (msg.sender == games[gameId].player1) {\n            games[gameId].nextPlayer = games[gameId].player2;\n        } else {\n            games[gameId].nextPlayer = games[gameId].player1;\n        }\n\n        }\n}\n\ncontract Battleships is TurnBasedGame {\n\n    event GameInitialized(bytes32 indexed gameId, address indexed player1, string player1Alias, uint pot);\n    event GameJoined(bytes32 indexed gameId, address indexed player1, string player1Alias, address indexed player2, string player2Alias, uint pot);\n    event TurnTaken(address turnTaker);\n\n        /**\n     * Initialize a new game\n     * string player1Alias: Alias of the player creating the game\n     * bool playAsWhite: Pass true or false depending on if the creator will play as white\n     */\n    function initGame(string player1Alias, uint playerHand) public payable returns (bytes32) {\n        bytes32 gameId = super.initGame(player1Alias);\n\n        super.setPlayerHand(gameId, playerHand);\n        // Sent notification events\n        emit GameInitialized(gameId, games[gameId].player1, player1Alias, games[gameId].pot);\n        return gameId;\n    }\n\n\n\n\n    /**\n     * Join an initialized game\n     * bytes32 gameId: ID of the game to join\n     * string player2Alias: Alias of the player that is joining\n     */\n    function joinGame(bytes32 gameId, string player2Alias, uint playerHand) public payable {\n        super.joinGame(gameId, player2Alias);\n        super.setPlayerHand(gameId, playerHand);\n        // for this game the first to play is the entering challenger (player2)\n        games[gameId].nextPlayer = msg.sender;\n\n\n        emit GameJoined(gameId, games[gameId].player1, games[gameId].player1Alias, games[gameId].player2, player2Alias, games[gameId].pot);\n}\n\n    function takeTurn(bytes32 gameId) public {\n      //  address turnTaker = msg.sender;\n        super.takeTurn(gameId);\n        emit TurnTaken(msg.sender);\n    }\n}\n",
  "sourcePath": "/Users/williamcragg/Repos/Consensys/truffle_react/contracts/Battleships.sol",
  "compiler": {
    "name": "solc",
    "version": "0.4.24+commit.e67f0147.Emscripten.clang"
  },
  "schemaVersion": "2.0.0",
  "updatedAt": "2018-08-26T20:39:42.655Z"
}