{
  "contractName": "SimpleStorage",
  "abi": [
    {
      "constant": true,
      "inputs": [
        {
          "name": "",
          "type": "bytes32"
        }
      ],
      "name": "openGameIds",
      "outputs": [
        {
          "name": "",
          "type": "bytes32"
        }
      ],
      "payable": false,
      "stateMutability": "view",
      "type": "function"
    },
    {
      "constant": true,
      "inputs": [],
      "name": "head",
      "outputs": [
        {
          "name": "",
          "type": "bytes32"
        }
      ],
      "payable": false,
      "stateMutability": "view",
      "type": "function"
    },
    {
      "constant": true,
      "inputs": [
        {
          "name": "",
          "type": "address"
        },
        {
          "name": "",
          "type": "bytes32"
        }
      ],
      "name": "gamesOfPlayers",
      "outputs": [
        {
          "name": "",
          "type": "bytes32"
        }
      ],
      "payable": false,
      "stateMutability": "view",
      "type": "function"
    },
    {
      "constant": true,
      "inputs": [
        {
          "name": "",
          "type": "address"
        }
      ],
      "name": "gamesOfPlayersHeads",
      "outputs": [
        {
          "name": "",
          "type": "bytes32"
        }
      ],
      "payable": false,
      "stateMutability": "view",
      "type": "function"
    },
    {
      "constant": true,
      "inputs": [
        {
          "name": "",
          "type": "bytes32"
        }
      ],
      "name": "games",
      "outputs": [
        {
          "name": "player1",
          "type": "address"
        },
        {
          "name": "player2",
          "type": "address"
        },
        {
          "name": "player1Alias",
          "type": "string"
        },
        {
          "name": "player2Alias",
          "type": "string"
        },
        {
          "name": "nextPlayer",
          "type": "address"
        },
        {
          "name": "winner",
          "type": "address"
        },
        {
          "name": "ended",
          "type": "bool"
        },
        {
          "name": "pot",
          "type": "uint256"
        },
        {
          "name": "player1Winnings",
          "type": "uint256"
        },
        {
          "name": "player2Winnings",
          "type": "uint256"
        },
        {
          "name": "timeoutStarted",
          "type": "uint256"
        },
        {
          "name": "timeoutState",
          "type": "int8"
        }
      ],
      "payable": false,
      "stateMutability": "view",
      "type": "function"
    },
    {
      "anonymous": false,
      "inputs": [
        {
          "indexed": true,
          "name": "gameId",
          "type": "bytes32"
        }
      ],
      "name": "GameEnded",
      "type": "event"
    },
    {
      "anonymous": false,
      "inputs": [
        {
          "indexed": true,
          "name": "gameId",
          "type": "bytes32"
        },
        {
          "indexed": true,
          "name": "player",
          "type": "address"
        }
      ],
      "name": "GameClosed",
      "type": "event"
    },
    {
      "anonymous": false,
      "inputs": [
        {
          "indexed": true,
          "name": "gameId",
          "type": "bytes32"
        },
        {
          "indexed": false,
          "name": "timeoutStarted",
          "type": "uint256"
        },
        {
          "indexed": false,
          "name": "timeoutState",
          "type": "int8"
        }
      ],
      "name": "GameTimeoutStarted",
      "type": "event"
    },
    {
      "anonymous": false,
      "inputs": [
        {
          "indexed": true,
          "name": "gameId",
          "type": "bytes32"
        }
      ],
      "name": "GameDrawOfferRejected",
      "type": "event"
    },
    {
      "anonymous": false,
      "inputs": [
        {
          "indexed": false,
          "name": "message",
          "type": "string"
        },
        {
          "indexed": false,
          "name": "value1",
          "type": "uint256"
        },
        {
          "indexed": false,
          "name": "value2",
          "type": "uint256"
        },
        {
          "indexed": false,
          "name": "value3",
          "type": "uint256"
        }
      ],
      "name": "DebugInts",
      "type": "event"
    },
    {
      "constant": false,
      "inputs": [
        {
          "name": "x",
          "type": "uint256"
        }
      ],
      "name": "set",
      "outputs": [],
      "payable": false,
      "stateMutability": "nonpayable",
      "type": "function"
    },
    {
      "constant": true,
      "inputs": [],
      "name": "get",
      "outputs": [
        {
          "name": "",
          "type": "uint256"
        }
      ],
      "payable": false,
      "stateMutability": "view",
      "type": "function"
    },
    {
      "constant": true,
      "inputs": [
        {
          "name": "player",
          "type": "address"
        }
      ],
      "name": "getGamesOfPlayer",
      "outputs": [
        {
          "name": "",
          "type": "bytes32[]"
        }
      ],
      "payable": false,
      "stateMutability": "view",
      "type": "function"
    },
    {
      "constant": true,
      "inputs": [],
      "name": "getOpenGameIds",
      "outputs": [
        {
          "name": "",
          "type": "bytes32[]"
        }
      ],
      "payable": false,
      "stateMutability": "view",
      "type": "function"
    },
    {
      "constant": false,
      "inputs": [
        {
          "name": "player1Alias",
          "type": "string"
        }
      ],
      "name": "initGame",
      "outputs": [
        {
          "name": "",
          "type": "bytes32"
        }
      ],
      "payable": true,
      "stateMutability": "payable",
      "type": "function"
    },
    {
      "constant": false,
      "inputs": [
        {
          "name": "gameId",
          "type": "bytes32"
        },
        {
          "name": "player2Alias",
          "type": "string"
        }
      ],
      "name": "joinGame",
      "outputs": [],
      "payable": true,
      "stateMutability": "payable",
      "type": "function"
    }
  ],
  "bytecode": "0x608060405234801561001057600080fd5b50611463806100206000396000f3006080604052600436106100af576000357c0100000000000000000000000000000000000000000000000000000000900463ffffffff1680630a277d28146100b45780630b51c2d51461010157806360fe47b1146101795780636d4ce63c146101a65780638f7dcfa3146101d1578063a8608fc414610204578063d5fdb33414610271578063e6378d3a146102dd578063e6de139f14610347578063f0b05bfd146103a6578063f579f8821461043e575b600080fd5b3480156100c057600080fd5b506100e36004803603810190808035600019169060200190929190505050610654565b60405180826000191660001916815260200191505060405180910390f35b61015b600480360381019080803590602001908201803590602001908080601f016020809104026020016040519081016040528093929190818152602001838380828437820191505050505050919291929050505061066c565b60405180826000191660001916815260200191505060405180910390f35b34801561018557600080fd5b506101a4600480360381019080803590602001909291905050506109c8565b005b3480156101b257600080fd5b506101bb6109d2565b6040518082815260200191505060405180910390f35b3480156101dd57600080fd5b506101e66109db565b60405180826000191660001916815260200191505060405180910390f35b34801561021057600080fd5b50610253600480360381019080803573ffffffffffffffffffffffffffffffffffffffff16906020019092919080356000191690602001909291905050506109e1565b60405180826000191660001916815260200191505060405180910390f35b34801561027d57600080fd5b50610286610a06565b6040518080602001828103825283818151815260200191508051906020019060200280838360005b838110156102c95780820151818401526020810190506102ae565b505050509050019250505060405180910390f35b6103456004803603810190808035600019169060200190929190803590602001908201803590602001908080601f0160208091040260200160405190810160405280939291908181526020018383808284378201915050505050509192919290505050610af7565b005b34801561035357600080fd5b50610388600480360381019080803573ffffffffffffffffffffffffffffffffffffffff169060200190929190505050610fa2565b60405180826000191660001916815260200191505060405180910390f35b3480156103b257600080fd5b506103e7600480360381019080803573ffffffffffffffffffffffffffffffffffffffff169060200190929190505050610fba565b6040518080602001828103825283818151815260200191508051906020019060200280838360005b8381101561042a57808201518184015260208101905061040f565b505050509050019250505060405180910390f35b34801561044a57600080fd5b5061046d6004803603810190808035600019169060200190929190505050611168565b604051808d73ffffffffffffffffffffffffffffffffffffffff1673ffffffffffffffffffffffffffffffffffffffff1681526020018c73ffffffffffffffffffffffffffffffffffffffff1673ffffffffffffffffffffffffffffffffffffffff16815260200180602001806020018b73ffffffffffffffffffffffffffffffffffffffff1673ffffffffffffffffffffffffffffffffffffffff1681526020018a73ffffffffffffffffffffffffffffffffffffffff1673ffffffffffffffffffffffffffffffffffffffff168152602001891515151581526020018881526020018781526020018681526020018581526020018460000b60000b815260200183810383528d818151815260200191508051906020019080838360005b838110156105a757808201518184015260208101905061058c565b50505050905090810190601f1680156105d45780820380516001836020036101000a031916815260200191505b5083810382528c818151815260200191508051906020019080838360005b8381101561060d5780820151818401526020810190506105f2565b50505050905090810190601f16801561063a5780820380516001836020036101000a031916815260200191505b509e50505050505050505050505050505060405180910390f35b60026020528060005260406000206000915090505481565b6000803343604051602001808373ffffffffffffffffffffffffffffffffffffffff1673ffffffffffffffffffffffffffffffffffffffff166c01000000000000000000000000028152601401828152602001925050506040516020818303038152906040526040518082805190602001908083835b60208310151561070757805182526020820191506020810190506020830392506106e2565b6001836020036101000a03801982511681845116808217855250505050505090500191505060405180910390209050600060016000836000191660001916815260200190815260200160002060050160146101000a81548160ff0219169083151502179055506000600160008360001916600019168152602001908152602001600020600a0160006101000a81548160ff021916908360000b60ff1602179055503360016000836000191660001916815260200190815260200160002060000160006101000a81548173ffffffffffffffffffffffffffffffffffffffff021916908373ffffffffffffffffffffffffffffffffffffffff160217905550826001600083600019166000191681526020019081526020016000206002019080519060200190610837929190611392565b506000600160008360001916600019168152602001908152602001600020600701819055506000600160008360001916600019168152602001908152602001600020600801819055506002340260016000836000191660001916815260200190815260200160002060060181905550600560003373ffffffffffffffffffffffffffffffffffffffff1673ffffffffffffffffffffffffffffffffffffffff16815260200190815260200160002054600460003373ffffffffffffffffffffffffffffffffffffffff1673ffffffffffffffffffffffffffffffffffffffff16815260200190815260200160002060008360001916600019168152602001908152602001600020816000191690555080600560003373ffffffffffffffffffffffffffffffffffffffff1673ffffffffffffffffffffffffffffffffffffffff16815260200190815260200160002081600019169055506003546002600083600019166000191681526020019081526020016000208160001916905550806003816000191690555080915050919050565b8060008190555050565b60008054905090565b60035481565b6004602052816000526040600020602052806000526040600020600091509150505481565b606060008060606000806000945060035493505b60006001028460001916141515610a56578480600101955050600260008560001916600019168152602001908152602001600020549350610a1a565b84604051908082528060200260200182016040528015610a855781602001602082028038833980820191505090505b5092506003549150600090505b84811015610aec57818382815181101515610aa957fe5b9060200190602002019060001916908160001916815250506002600083600019166000191681526020019081526020016000205491508080600101915050610a92565b829550505050505090565b60008060016000856000191660001916815260200190815260200160002060010160009054906101000a900473ffffffffffffffffffffffffffffffffffffffff1673ffffffffffffffffffffffffffffffffffffffff16141515610bc4576040517f08c379a00000000000000000000000000000000000000000000000000000000081526004018080602001828103825260118152602001807f746869732067616d652069732066756c6c00000000000000000000000000000081525060200191505060405180910390fd5b6001600084600019166000191681526020019081526020016000206006015434141515610c59576040517f08c379a00000000000000000000000000000000000000000000000000000000081526004018080602001828103825260198152602001807f796f75206e65656420746f206d6174636820746865206265740000000000000081525060200191505060405180910390fd5b34600160008560001916600019168152602001908152602001600020600601600082825401925050819055503360016000856000191660001916815260200190815260200160002060010160006101000a81548173ffffffffffffffffffffffffffffffffffffffff021916908373ffffffffffffffffffffffffffffffffffffffff160217905550816001600085600019166000191681526020019081526020016000206003019080519060200190610d14929190611392565b50600560003373ffffffffffffffffffffffffffffffffffffffff1673ffffffffffffffffffffffffffffffffffffffff16815260200190815260200160002054600460003373ffffffffffffffffffffffffffffffffffffffff1673ffffffffffffffffffffffffffffffffffffffff16815260200190815260200160002060008560001916600019168152602001908152602001600020816000191690555082600560003373ffffffffffffffffffffffffffffffffffffffff1673ffffffffffffffffffffffffffffffffffffffff16815260200190815260200160002081600019169055508260001916600354600019161415610e64576002600060035460001916600019168152602001908152602001600020546003816000191690555060006001026002600085600019166000191681526020019081526020016000208160001916905550610f9d565b60035490505b7f656e640000000000000000000000000000000000000000000000000000000000816000191614158015610edd57507f656e640000000000000000000000000000000000000000000000000000000000600260008360001916600019168152602001908152602001600020546000191614155b15610f9c57826000191660026000836000191660001916815260200190815260200160002054600019161415610f795760026000846000191660001916815260200190815260200160002054600260008360001916600019168152602001908152602001600020816000191690555060006001026002600085600019166000191681526020019081526020016000208160001916905550610f9c565b600260008260001916600019168152602001908152602001600020549050610e6a565b5b505050565b60056020528060005260406000206000915090505481565b606060008060006060600080600560008973ffffffffffffffffffffffffffffffffffffffff1673ffffffffffffffffffffffffffffffffffffffff168152602001908152602001600020549550600094508593505b60006001028460001916141515611089578480600101955050600460008973ffffffffffffffffffffffffffffffffffffffff1673ffffffffffffffffffffffffffffffffffffffff16815260200190815260200160002060008560001916600019168152602001908152602001600020549350611010565b846040519080825280602002602001820160405280156110b85781602001602082028038833980820191505090505b509250859150600090505b8481101561115a578183828151811015156110da57fe5b906020019060200201906000191690816000191681525050600460008973ffffffffffffffffffffffffffffffffffffffff1673ffffffffffffffffffffffffffffffffffffffff1681526020019081526020016000206000836000191660001916815260200190815260200160002054915080806001019150506110c3565b829650505050505050919050565b60016020528060005260406000206000915090508060000160009054906101000a900473ffffffffffffffffffffffffffffffffffffffff16908060010160009054906101000a900473ffffffffffffffffffffffffffffffffffffffff1690806002018054600181600116156101000203166002900480601f0160208091040260200160405190810160405280929190818152602001828054600181600116156101000203166002900480156112605780601f1061123557610100808354040283529160200191611260565b820191906000526020600020905b81548152906001019060200180831161124357829003601f168201915b505050505090806003018054600181600116156101000203166002900480601f0160208091040260200160405190810160405280929190818152602001828054600181600116156101000203166002900480156112fe5780601f106112d3576101008083540402835291602001916112fe565b820191906000526020600020905b8154815290600101906020018083116112e157829003601f168201915b5050505050908060040160009054906101000a900473ffffffffffffffffffffffffffffffffffffffff16908060050160009054906101000a900473ffffffffffffffffffffffffffffffffffffffff16908060050160149054906101000a900460ff169080600601549080600701549080600801549080600901549080600a0160009054906101000a900460000b90508c565b828054600181600116156101000203166002900490600052602060002090601f016020900481019282601f106113d357805160ff1916838001178555611401565b82800160010185558215611401579182015b828111156114005782518255916020019190600101906113e5565b5b50905061140e9190611412565b5090565b61143491905b80821115611430576000816000905550600101611418565b5090565b905600a165627a7a72305820b7daaed463e915351f09d65d0c7a51289dea10522863f3556146f944fa88fc250029",
  "source": "pragma solidity ^0.4.18;\n\ncontract SimpleStorage {\n  uint storedData;\n\n  function set(uint x) public {\n    storedData = x;\n  }\n\n  function get() public view returns (uint) {\n    return storedData;\n  }\n\n    event GameEnded(bytes32 indexed gameId);\n    event GameClosed(bytes32 indexed gameId, address indexed player);\n    event GameTimeoutStarted(bytes32 indexed gameId, uint timeoutStarted, int8 timeoutState);\n    // GameDrawOfferRejected: notification that a draw of the currently turning player\n    //                        is rejected by the waiting player\n    event GameDrawOfferRejected(bytes32 indexed gameId);\n    event DebugInts(string message, uint value1, uint value2, uint value3);\n\n    struct Game {\n        address player1;\n        address player2;\n        string player1Alias;\n        string player2Alias;\n        address nextPlayer;\n        address winner;\n        bool ended;\n        uint pot; // What this game is worth: ether paid into the game\n        uint player1Winnings;\n        uint player2Winnings;\n        uint timeoutStarted; // timer for timeout\n        /*\n         * -2 draw offered by nextPlayer\n         * -1 draw offered by waiting player\n         * 0 nothing\n         * 1 checkmate\n         * 2 timeout\n         */\n        int8 timeoutState;\n    }\n\n    mapping (bytes32 => Game) public games;\n\n    // stack of open game ids\n    mapping (bytes32 => bytes32) public openGameIds;\n    bytes32 public head;\n\n    // stack of games of players\n    mapping (address => mapping (bytes32 => bytes32)) public gamesOfPlayers;\n    mapping (address => bytes32) public gamesOfPlayersHeads;\n\n    function getGamesOfPlayer(address player) constant public returns (bytes32[]) {\n        bytes32 playerHead = gamesOfPlayersHeads[player];\n        uint counter = 0;\n        for (bytes32 ga = playerHead; ga != 0; ga = gamesOfPlayers[player][ga]) {\n            counter++;\n        }\n        bytes32[] memory data = new bytes32[](counter);\n        bytes32 currentGame = playerHead;\n        for (uint i = 0; i < counter; i++) {\n            data[i] = currentGame;\n            currentGame = gamesOfPlayers[player][currentGame];\n        }\n        return data;\n    }\n\n    function getOpenGameIds() constant public returns (bytes32[]) {\n        uint counter = 0;\n        for (bytes32 ga = head; ga != 0; ga = openGameIds[ga]) {\n            counter++;\n        }\n        bytes32[] memory data = new bytes32[](counter);\n        bytes32 currentGame = head;\n        for (uint i = 0; i < counter; i++) {\n            data[i] = currentGame;\n            currentGame = openGameIds[currentGame];\n        }\n        return data;\n    }\n\n\n    function initGame(string player1Alias) public payable returns (bytes32) {\n\n        // Generate game id based on player's addresses and current block number\n        bytes32 gameId = keccak256(abi.encodePacked(msg.sender,block.number));\n\n        games[gameId].ended = false;\n        games[gameId].timeoutState = 0;\n\n        // Initialize participants\n        games[gameId].player1 = msg.sender;\n        games[gameId].player1Alias = player1Alias;\n        games[gameId].player1Winnings = 0;\n        games[gameId].player2Winnings = 0;\n\n        // Initialize game value\n        games[gameId].pot = msg.value * 2;\n\n        // Add game to gamesOfPlayers\n        gamesOfPlayers[msg.sender][gameId] = gamesOfPlayersHeads[msg.sender];\n        gamesOfPlayersHeads[msg.sender] = gameId;\n\n        // Add to openGameIds\n        openGameIds[gameId] = head;\n        head = gameId;\n\n        return gameId;\n    }\n\n    /**\n     * Join an initialized game\n     * bytes32 gameId: ID of the game to join\n     * string player2Alias: Alias of the player that is joining\n     */\n    function joinGame(bytes32 gameId, string player2Alias) public payable {\n        // Check that this game does not have a second player yet\n        require(games[gameId].player2 == 0, \"this game is full\");\n\n        // require second player to match the bet.\n        require(msg.value == games[gameId].pot, \"you need to match the bet\");\n\n        games[gameId].pot += msg.value;\n\n        games[gameId].player2 = msg.sender;\n        games[gameId].player2Alias = player2Alias;\n\n        // Add game to gamesOfPlayers\n        gamesOfPlayers[msg.sender][gameId] = gamesOfPlayersHeads[msg.sender];\n        gamesOfPlayersHeads[msg.sender] = gameId;\n\n        // Remove from openGameIds\n        if (head == gameId) {\n            head = openGameIds[head];\n            openGameIds[gameId] = 0;\n        } else {\n            for (bytes32 g = head; g != 'end' && openGameIds[g] != 'end'; g = openGameIds[g]) {\n                if (openGameIds[g] == gameId) {\n                    openGameIds[g] = openGameIds[gameId];\n                    openGameIds[gameId] = 0;\n                    break;\n                }\n            }\n        }\n    }\n}\n\ncontract Battleships is SimpleStorage {\n\n    event GameInitialized(bytes32 indexed gameId, address indexed player1, string player1Alias, uint pot);\n    event GameJoined(bytes32 indexed gameId, address indexed player1, string player1Alias, address indexed player2, string player2Alias, uint pot);\n\n\n        /**\n     * Initialize a new game\n     * string player1Alias: Alias of the player creating the game\n     * bool playAsWhite: Pass true or false depending on if the creator will play as white\n     */\n    function initGame(string player1Alias) public payable returns (bytes32) {\n        bytes32 gameId = super.initGame(player1Alias);\n\n\n        // Sent notification events\n        emit GameInitialized(gameId, games[gameId].player1, player1Alias, games[gameId].pot);\n        return gameId;\n    }\n\n    /**\n     * Join an initialized game\n     * bytes32 gameId: ID of the game to join\n     * string player2Alias: Alias of the player that is joining\n     */\n    function joinGame(bytes32 gameId, string player2Alias) public payable {\n        super.joinGame(gameId, player2Alias);\n\n        // If the other player isn't white, player2 will play as white\n\n\n        emit GameJoined(gameId, games[gameId].player1, games[gameId].player1Alias, games[gameId].player2, player2Alias, games[gameId].pot);\n}\n}\n",
  "sourcePath": "/Users/williamcragg/Repos/Consensys/truffle_react/contracts/SimpleStorage.sol",
  "compiler": {
    "name": "solc",
    "version": "0.4.24+commit.e67f0147.Emscripten.clang"
  },
  "schemaVersion": "2.0.0",
  "updatedAt": "2018-08-24T14:56:39.856Z"
}