{
  "contractName": "TurnBasedGame",
  "abi": [
    {
      "constant": true,
      "inputs": [
        {
          "name": "",
          "type": "bytes32"
        }
      ],
      "name": "openGameIds",
      "outputs": [
        {
          "name": "",
          "type": "bytes32"
        }
      ],
      "payable": false,
      "stateMutability": "view",
      "type": "function"
    },
    {
      "constant": true,
      "inputs": [],
      "name": "head",
      "outputs": [
        {
          "name": "",
          "type": "bytes32"
        }
      ],
      "payable": false,
      "stateMutability": "view",
      "type": "function"
    },
    {
      "constant": true,
      "inputs": [
        {
          "name": "",
          "type": "address"
        },
        {
          "name": "",
          "type": "bytes32"
        }
      ],
      "name": "gamesOfPlayers",
      "outputs": [
        {
          "name": "",
          "type": "bytes32"
        }
      ],
      "payable": false,
      "stateMutability": "view",
      "type": "function"
    },
    {
      "constant": true,
      "inputs": [
        {
          "name": "",
          "type": "address"
        }
      ],
      "name": "gamesOfPlayersHeads",
      "outputs": [
        {
          "name": "",
          "type": "bytes32"
        }
      ],
      "payable": false,
      "stateMutability": "view",
      "type": "function"
    },
    {
      "constant": true,
      "inputs": [
        {
          "name": "",
          "type": "bytes32"
        }
      ],
      "name": "games",
      "outputs": [
        {
          "name": "player1",
          "type": "address"
        },
        {
          "name": "player2",
          "type": "address"
        },
        {
          "name": "player1Alias",
          "type": "string"
        },
        {
          "name": "player2Alias",
          "type": "string"
        },
        {
          "name": "nextPlayer",
          "type": "address"
        },
        {
          "name": "winner",
          "type": "address"
        },
        {
          "name": "ended",
          "type": "bool"
        },
        {
          "name": "wager",
          "type": "uint256"
        },
        {
          "name": "player1Winnings",
          "type": "uint256"
        },
        {
          "name": "player2Winnings",
          "type": "uint256"
        },
        {
          "name": "player1Hand",
          "type": "uint256"
        },
        {
          "name": "player2Hand",
          "type": "uint256"
        }
      ],
      "payable": false,
      "stateMutability": "view",
      "type": "function"
    },
    {
      "anonymous": false,
      "inputs": [
        {
          "indexed": true,
          "name": "gameId",
          "type": "bytes32"
        },
        {
          "indexed": true,
          "name": "winner",
          "type": "address"
        }
      ],
      "name": "GameHasEnded",
      "type": "event"
    },
    {
      "anonymous": false,
      "inputs": [
        {
          "indexed": true,
          "name": "gameId",
          "type": "bytes32"
        },
        {
          "indexed": true,
          "name": "winner",
          "type": "address"
        }
      ],
      "name": "WinningsTransferred",
      "type": "event"
    },
    {
      "constant": true,
      "inputs": [
        {
          "name": "player",
          "type": "address"
        }
      ],
      "name": "getGamesOfPlayer",
      "outputs": [
        {
          "name": "",
          "type": "bytes32[]"
        }
      ],
      "payable": false,
      "stateMutability": "view",
      "type": "function"
    },
    {
      "constant": true,
      "inputs": [],
      "name": "getOpenGameIds",
      "outputs": [
        {
          "name": "",
          "type": "bytes32[]"
        }
      ],
      "payable": false,
      "stateMutability": "view",
      "type": "function"
    },
    {
      "constant": false,
      "inputs": [
        {
          "name": "player1Alias",
          "type": "string"
        }
      ],
      "name": "initGame",
      "outputs": [
        {
          "name": "",
          "type": "bytes32"
        }
      ],
      "payable": true,
      "stateMutability": "payable",
      "type": "function"
    },
    {
      "constant": false,
      "inputs": [
        {
          "name": "gameId",
          "type": "bytes32"
        },
        {
          "name": "value",
          "type": "uint256"
        }
      ],
      "name": "setPlayerHand",
      "outputs": [],
      "payable": false,
      "stateMutability": "nonpayable",
      "type": "function"
    },
    {
      "constant": false,
      "inputs": [
        {
          "name": "gameId",
          "type": "bytes32"
        },
        {
          "name": "player2Alias",
          "type": "string"
        }
      ],
      "name": "joinGame",
      "outputs": [],
      "payable": true,
      "stateMutability": "payable",
      "type": "function"
    },
    {
      "constant": false,
      "inputs": [
        {
          "name": "gameId",
          "type": "bytes32"
        }
      ],
      "name": "takeTurn",
      "outputs": [],
      "payable": false,
      "stateMutability": "nonpayable",
      "type": "function"
    },
    {
      "constant": false,
      "inputs": [
        {
          "name": "gameId",
          "type": "bytes32"
        }
      ],
      "name": "endGame",
      "outputs": [],
      "payable": false,
      "stateMutability": "nonpayable",
      "type": "function"
    }
  ],
  "bytecode": "0x608060405234801561001057600080fd5b50611d55806100206000396000f3006080604052600436106100ba576000357c0100000000000000000000000000000000000000000000000000000000900463ffffffff1680630a277d28146100bf5780630b51c2d51461010c57806311d022f8146101845780638f7dcfa3146101bf5780638fdd3d6b146101f2578063a8608fc414610223578063b529a81c14610290578063d5fdb334146102c1578063e6378d3a1461032d578063e6de139f14610397578063f0b05bfd146103f6578063f579f8821461048e575b600080fd5b3480156100cb57600080fd5b506100ee600480360381019080803560001916906020019092919050505061069e565b60405180826000191660001916815260200191505060405180910390f35b610166600480360381019080803590602001908201803590602001908080601f01602080910402602001604051908101604052809392919081815260200183838082843782019150505050505091929192905050506106b6565b60405180826000191660001916815260200191505060405180910390f35b34801561019057600080fd5b506101bd600480360381019080803560001916906020019092919080359060200190929190505050610988565b005b3480156101cb57600080fd5b506101d4610ab4565b60405180826000191660001916815260200191505060405180910390f35b3480156101fe57600080fd5b506102216004803603810190808035600019169060200190929190505050610aba565b005b34801561022f57600080fd5b50610272600480360381019080803573ffffffffffffffffffffffffffffffffffffffff1690602001909291908035600019169060200190929190505050610d7e565b60405180826000191660001916815260200191505060405180910390f35b34801561029c57600080fd5b506102bf6004803603810190808035600019169060200190929190505050610da3565b005b3480156102cd57600080fd5b506102d6611228565b6040518080602001828103825283818151815260200191508051906020019060200280838360005b838110156103195780820151818401526020810190506102fe565b505050509050019250505060405180910390f35b6103956004803603810190808035600019169060200190929190803590602001908201803590602001908080601f0160208091040260200160405190810160405280939291908181526020018383808284378201915050505050509192919290505050611319565b005b3480156103a357600080fd5b506103d8600480360381019080803573ffffffffffffffffffffffffffffffffffffffff1690602001909291905050506118a1565b60405180826000191660001916815260200191505060405180910390f35b34801561040257600080fd5b50610437600480360381019080803573ffffffffffffffffffffffffffffffffffffffff1690602001909291905050506118b9565b6040518080602001828103825283818151815260200191508051906020019060200280838360005b8381101561047a57808201518184015260208101905061045f565b505050509050019250505060405180910390f35b34801561049a57600080fd5b506104bd6004803603810190808035600019169060200190929190505050611a67565b604051808d73ffffffffffffffffffffffffffffffffffffffff1673ffffffffffffffffffffffffffffffffffffffff1681526020018c73ffffffffffffffffffffffffffffffffffffffff1673ffffffffffffffffffffffffffffffffffffffff16815260200180602001806020018b73ffffffffffffffffffffffffffffffffffffffff1673ffffffffffffffffffffffffffffffffffffffff1681526020018a73ffffffffffffffffffffffffffffffffffffffff1673ffffffffffffffffffffffffffffffffffffffff1681526020018915151515815260200188815260200187815260200186815260200185815260200184815260200183810383528d818151815260200191508051906020019080838360005b838110156105f15780820151818401526020810190506105d6565b50505050905090810190601f16801561061e5780820380516001836020036101000a031916815260200191505b5083810382528c818151815260200191508051906020019080838360005b8381101561065757808201518184015260208101905061063c565b50505050905090810190601f1680156106845780820380516001836020036101000a031916815260200191505b509e50505050505050505050505050505060405180910390f35b60016020528060005260406000206000915090505481565b6000803343604051602001808373ffffffffffffffffffffffffffffffffffffffff1673ffffffffffffffffffffffffffffffffffffffff166c01000000000000000000000000028152601401828152602001925050506040516020818303038152906040526040518082805190602001908083835b602083101515610751578051825260208201915060208101905060208303925061072c565b6001836020036101000a038019825116818451168082178552505050505050905001915050604051809103902090506000806000836000191660001916815260200190815260200160002060050160146101000a81548160ff02191690831515021790555033600080836000191660001916815260200190815260200160002060000160006101000a81548173ffffffffffffffffffffffffffffffffffffffff021916908373ffffffffffffffffffffffffffffffffffffffff1602179055508260008083600019166000191681526020019081526020016000206002019080519060200190610843929190611c84565b5034600080836000191660001916815260200190815260200160002060060181905550600460003373ffffffffffffffffffffffffffffffffffffffff1673ffffffffffffffffffffffffffffffffffffffff16815260200190815260200160002054600360003373ffffffffffffffffffffffffffffffffffffffff1673ffffffffffffffffffffffffffffffffffffffff16815260200190815260200160002060008360001916600019168152602001908152602001600020816000191690555080600460003373ffffffffffffffffffffffffffffffffffffffff1673ffffffffffffffffffffffffffffffffffffffff16815260200190815260200160002081600019169055506002546001600083600019166000191681526020019081526020016000208160001916905550806002816000191690555080915050919050565b600080836000191660001916815260200190815260200160002060000160009054906101000a900473ffffffffffffffffffffffffffffffffffffffff1673ffffffffffffffffffffffffffffffffffffffff163373ffffffffffffffffffffffffffffffffffffffff161415610a1c57806000808460001916600019168152602001908152602001600020600901819055505b600080836000191660001916815260200190815260200160002060010160009054906101000a900473ffffffffffffffffffffffffffffffffffffffff1673ffffffffffffffffffffffffffffffffffffffff163373ffffffffffffffffffffffffffffffffffffffff161415610ab057806000808460001916600019168152602001908152602001600020600a01819055505b5050565b60025481565b3373ffffffffffffffffffffffffffffffffffffffff16600080836000191660001916815260200190815260200160002060050160009054906101000a900473ffffffffffffffffffffffffffffffffffffffff1673ffffffffffffffffffffffffffffffffffffffff16141515610bc0576040517f08c379a00000000000000000000000000000000000000000000000000000000081526004018080602001828103825260268152602001807f746869732067616d652061696e74206f7665722074696c20736f6d65626f647981526020017f2077696e7321000000000000000000000000000000000000000000000000000081525060400191505060405180910390fd5b6001600080836000191660001916815260200190815260200160002060050160146101000a81548160ff021916908315150217905550600080826000191660001916815260200190815260200160002060050160009054906101000a900473ffffffffffffffffffffffffffffffffffffffff1673ffffffffffffffffffffffffffffffffffffffff1681600019167f987058d6ce63d6fa56acb23a00bbefce5991f85c8e8e5293947982a3bfa80fbb60405160405180910390a33373ffffffffffffffffffffffffffffffffffffffff166108fc6000808460001916600019168152602001908152602001600020600601549081150290604051600060405180830381858888f1935050505015610d7b576000806000836000191660001916815260200190815260200160002060060181905550600080826000191660001916815260200190815260200160002060050160009054906101000a900473ffffffffffffffffffffffffffffffffffffffff1673ffffffffffffffffffffffffffffffffffffffff1681600019167fa847e9306a9f6bd10b014e1da2a55074f406e40e3c2595f30af027a3205510d560405160405180910390a35b50565b6003602052816000526040600020602052806000526040600020600091509150505481565b3373ffffffffffffffffffffffffffffffffffffffff16600080836000191660001916815260200190815260200160002060000160009054906101000a900473ffffffffffffffffffffffffffffffffffffffff1673ffffffffffffffffffffffffffffffffffffffff161480610e8257503373ffffffffffffffffffffffffffffffffffffffff16600080836000191660001916815260200190815260200160002060010160009054906101000a900473ffffffffffffffffffffffffffffffffffffffff1673ffffffffffffffffffffffffffffffffffffffff16145b1515610ef6576040517f08c379a00000000000000000000000000000000000000000000000000000000081526004018080602001828103825260158152602001807f746869732069736e277420796f75722067616d6521000000000000000000000081525060200191505060405180910390fd5b3373ffffffffffffffffffffffffffffffffffffffff16600080836000191660001916815260200190815260200160002060040160009054906101000a900473ffffffffffffffffffffffffffffffffffffffff1673ffffffffffffffffffffffffffffffffffffffff16141515610fd6576040517f08c379a00000000000000000000000000000000000000000000000000000000081526004018080602001828103825260128152602001807f697473206e6f7420796f7572207475726e21000000000000000000000000000081525060200191505060405180910390fd5b60001515600080836000191660001916815260200190815260200160002060050160149054906101000a900460ff16151514151561107c576040517f08c379a00000000000000000000000000000000000000000000000000000000081526004018080602001828103825260138152602001807f746869732067616d652068617320656e6465640000000000000000000000000081525060200191505060405180910390fd5b600080826000191660001916815260200190815260200160002060000160009054906101000a900473ffffffffffffffffffffffffffffffffffffffff1673ffffffffffffffffffffffffffffffffffffffff163373ffffffffffffffffffffffffffffffffffffffff16141561118b57600080826000191660001916815260200190815260200160002060010160009054906101000a900473ffffffffffffffffffffffffffffffffffffffff16600080836000191660001916815260200190815260200160002060040160006101000a81548173ffffffffffffffffffffffffffffffffffffffff021916908373ffffffffffffffffffffffffffffffffffffffff160217905550611225565b600080826000191660001916815260200190815260200160002060000160009054906101000a900473ffffffffffffffffffffffffffffffffffffffff16600080836000191660001916815260200190815260200160002060040160006101000a81548173ffffffffffffffffffffffffffffffffffffffff021916908373ffffffffffffffffffffffffffffffffffffffff1602179055505b50565b606060008060606000806000945060025493505b6000600102846000191614151561127857848060010195505060016000856000191660001916815260200190815260200160002054935061123c565b846040519080825280602002602001820160405280156112a75781602001602082028038833980820191505090505b5092506002549150600090505b8481101561130e578183828151811015156112cb57fe5b90602001906020020190600019169081600019168152505060016000836000191660001916815260200190815260200160002054915080806001019150506112b4565b829550505050505090565b60003373ffffffffffffffffffffffffffffffffffffffff16600080856000191660001916815260200190815260200160002060000160009054906101000a900473ffffffffffffffffffffffffffffffffffffffff1673ffffffffffffffffffffffffffffffffffffffff16141515156113fc576040517f08c379a000000000000000000000000000000000000000000000000000000000815260040180806020018281038252601d8152602001807f796f752063616e2774206a6f696e20796f7572206f776e2067616d652100000081525060200191505060405180910390fd5b6000806000856000191660001916815260200190815260200160002060010160009054906101000a900473ffffffffffffffffffffffffffffffffffffffff1673ffffffffffffffffffffffffffffffffffffffff161415156114c7576040517f08c379a00000000000000000000000000000000000000000000000000000000081526004018080602001828103825260118152602001807f746869732067616d652069732066756c6c00000000000000000000000000000081525060200191505060405180910390fd5b6000808460001916600019168152602001908152602001600020600601543414151561155b576040517f08c379a00000000000000000000000000000000000000000000000000000000081526004018080602001828103825260198152602001807f796f75206e65656420746f206d6174636820746865206265740000000000000081525060200191505060405180910390fd5b3460008085600019166000191681526020019081526020016000206006016000828254019250508190555033600080856000191660001916815260200190815260200160002060010160006101000a81548173ffffffffffffffffffffffffffffffffffffffff021916908373ffffffffffffffffffffffffffffffffffffffff1602179055508160008085600019166000191681526020019081526020016000206003019080519060200190611613929190611c84565b50600460003373ffffffffffffffffffffffffffffffffffffffff1673ffffffffffffffffffffffffffffffffffffffff16815260200190815260200160002054600360003373ffffffffffffffffffffffffffffffffffffffff1673ffffffffffffffffffffffffffffffffffffffff16815260200190815260200160002060008560001916600019168152602001908152602001600020816000191690555082600460003373ffffffffffffffffffffffffffffffffffffffff1673ffffffffffffffffffffffffffffffffffffffff1681526020019081526020016000208160001916905550826000191660025460001916141561176357600160006002546000191660001916815260200190815260200160002054600281600019169055506000600102600160008560001916600019168152602001908152602001600020816000191690555061189c565b60025490505b7f656e6400000000000000000000000000000000000000000000000000000000008160001916141580156117dc57507f656e640000000000000000000000000000000000000000000000000000000000600160008360001916600019168152602001908152602001600020546000191614155b1561189b57826000191660016000836000191660001916815260200190815260200160002054600019161415611878576001600084600019166000191681526020019081526020016000205460016000836000191660001916815260200190815260200160002081600019169055506000600102600160008560001916600019168152602001908152602001600020816000191690555061189b565b600160008260001916600019168152602001908152602001600020549050611769565b5b505050565b60046020528060005260406000206000915090505481565b606060008060006060600080600460008973ffffffffffffffffffffffffffffffffffffffff1673ffffffffffffffffffffffffffffffffffffffff168152602001908152602001600020549550600094508593505b60006001028460001916141515611988578480600101955050600360008973ffffffffffffffffffffffffffffffffffffffff1673ffffffffffffffffffffffffffffffffffffffff1681526020019081526020016000206000856000191660001916815260200190815260200160002054935061190f565b846040519080825280602002602001820160405280156119b75781602001602082028038833980820191505090505b509250859150600090505b84811015611a59578183828151811015156119d957fe5b906020019060200201906000191690816000191681525050600360008973ffffffffffffffffffffffffffffffffffffffff1673ffffffffffffffffffffffffffffffffffffffff1681526020019081526020016000206000836000191660001916815260200190815260200160002054915080806001019150506119c2565b829650505050505050919050565b60006020528060005260406000206000915090508060000160009054906101000a900473ffffffffffffffffffffffffffffffffffffffff16908060010160009054906101000a900473ffffffffffffffffffffffffffffffffffffffff1690806002018054600181600116156101000203166002900480601f016020809104026020016040519081016040528092919081815260200182805460018160011615610100020316600290048015611b5f5780601f10611b3457610100808354040283529160200191611b5f565b820191906000526020600020905b815481529060010190602001808311611b4257829003601f168201915b505050505090806003018054600181600116156101000203166002900480601f016020809104026020016040519081016040528092919081815260200182805460018160011615610100020316600290048015611bfd5780601f10611bd257610100808354040283529160200191611bfd565b820191906000526020600020905b815481529060010190602001808311611be057829003601f168201915b5050505050908060040160009054906101000a900473ffffffffffffffffffffffffffffffffffffffff16908060050160009054906101000a900473ffffffffffffffffffffffffffffffffffffffff16908060050160149054906101000a900460ff169080600601549080600701549080600801549080600901549080600a015490508c565b828054600181600116156101000203166002900490600052602060002090601f016020900481019282601f10611cc557805160ff1916838001178555611cf3565b82800160010185558215611cf3579182015b82811115611cf2578251825591602001919060010190611cd7565b5b509050611d009190611d04565b5090565b611d2691905b80821115611d22576000816000905550600101611d0a565b5090565b905600a165627a7a723058205044382328164c6f8169435a462cbea944c31e9f711cdb6566c84e7cc86778380029",
  "source": "pragma solidity ^0.4.2;\n\n/// @title A contract for playing a simple turn based guessing game\n/// @author William Cragg\n/// @notice You can use this contract as a basis for any turn based game\n/// @dev It is most definetly insecure at the moment\ncontract TurnBasedGame {\n    event GameHasEnded(bytes32 indexed gameId, address indexed winner);\n    event WinningsTransferred(bytes32 indexed gameId, address indexed winner);\n\n    struct TwoPlayerGame {\n        address player1; // player 1 always the creater of a game\n        address player2; // player 2 is always the challenger/joinee\n        string player1Alias;\n        string player2Alias;\n        address nextPlayer; //the next player who can take a turn\n        address winner;\n        bool ended;\n        uint wager; // ether paid in to the game as a bet (can be zero)\n        uint player1Winnings;\n        uint player2Winnings;\n        uint player1Hand; //to hold state of play for player1\n        uint player2Hand; //to hold state of play for player2\n    }\n\n    mapping (bytes32 => TwoPlayerGame) public games;\n\n    // mapping for open game ids\n    mapping (bytes32 => bytes32) public openGameIds;\n    bytes32 public head; //head is to represent top of the pile\n\n    // mapping for games of players\n    mapping (address => mapping (bytes32 => bytes32)) public gamesOfPlayers;\n    mapping (address => bytes32) public gamesOfPlayersHeads;\n\n    /// @notice gets all the games that a player is part of\n    /// @param player The player you want to get the games of\n    /// @return an array of game IDs\n    function getGamesOfPlayer(address player) constant public returns (bytes32[]) {\n        bytes32 playerHead = gamesOfPlayersHeads[player];\n        uint counter = 0;\n        for (bytes32 ga = playerHead; ga != 0; ga = gamesOfPlayers[player][ga]) {\n            counter++;\n        }\n        bytes32[] memory data = new bytes32[](counter);\n        bytes32 currentGame = playerHead;\n        for (uint i = 0; i < counter; i++) {\n            data[i] = currentGame;\n            currentGame = gamesOfPlayers[player][currentGame];\n        }\n        return data;\n    }\n\n\n      /// @notice gets all the open games made with this contrct\n      /// @return an array of game IDs\n    function getOpenGameIds() constant public returns (bytes32[]) {\n        uint counter = 0;\n        for (bytes32 ga = head; ga != 0; ga = openGameIds[ga]) {\n            counter++;\n        }\n        bytes32[] memory data = new bytes32[](counter);\n        bytes32 currentGame = head;\n        for (uint i = 0; i < counter; i++) {\n            data[i] = currentGame;\n            currentGame = openGameIds[currentGame];\n        }\n        return data;\n    }\n\n    /// @notice initialize a game with optional wager\n    /// @param player1Alias is player 1's chosen screen name\n    /// @return the ID of the initialized game\n    function initGame(string player1Alias) public payable returns (bytes32) {\n\n        // Generate game id based on player's addresses and current block number\n        bytes32 gameId = keccak256(abi.encodePacked(msg.sender,block.number));\n        games[gameId].ended = false;\n\n        // Initialize player1\n        games[gameId].player1 = msg.sender;\n        games[gameId].player1Alias = player1Alias;\n\n        // Initialize game value\n        games[gameId].wager = msg.value;\n\n        // Add game to list of player1s games\n        gamesOfPlayers[msg.sender][gameId] = gamesOfPlayersHeads[msg.sender];\n        gamesOfPlayersHeads[msg.sender] = gameId;\n\n        // Add to openGameIds\n        openGameIds[gameId] = head;\n        head = gameId;\n\n        return gameId;\n    }\n\n    /// @notice set the data for the players game\n    /// @dev this could be extended to hold the position of battleships (for example)\n    /// @param gameId is the game being set up\n    /// @param gameId is the value (TODO - position of the battleships)\n    function setPlayerHand(bytes32 gameId, uint value) public {\n        if (msg.sender == games[gameId].player1)\n            games[gameId].player1Hand = value;\n        if (msg.sender == games[gameId].player2)\n            games[gameId].player2Hand = value;\n    }\n\n\n    /// @notice join a game with optional wager\n    /// @param gameId is the ID of the game you wish to join\n    /// @param player2Alias is player 2's chosen screen name\n    function joinGame(bytes32 gameId, string player2Alias) public payable {\n\n        //check that this game was not intitalized by joiner!\n        require(games[gameId].player1 != msg.sender, \"you can't join your own game!\");\n        // Check that this game does not have a second player yet\n        require(games[gameId].player2 == 0, \"this game is full\");\n        // require second player to match the bet if any made.\n        require(msg.value == games[gameId].wager, \"you need to match the bet\");\n\n        games[gameId].wager += msg.value;\n        // Initialize player2\n        games[gameId].player2 = msg.sender;\n        games[gameId].player2Alias = player2Alias;\n\n        // Add game ID to list of player2's games\n        gamesOfPlayers[msg.sender][gameId] = gamesOfPlayersHeads[msg.sender];\n        gamesOfPlayersHeads[msg.sender] = gameId;\n\n        // Remove from openGameIds - so no one else tries to join\n        if (head == gameId) {\n            head = openGameIds[head];\n            openGameIds[gameId] = bytes32(0);\n        } else {\n            for (bytes32 g = head; g != 'end' && openGameIds[g] != 'end'; g = openGameIds[g]) {\n                if (openGameIds[g] == gameId) {\n                    openGameIds[g] = openGameIds[gameId];\n                    openGameIds[gameId] = bytes32(0);\n                    break;\n                }\n            }\n        }\n\n\n    }\n\n    /// @notice play your turn of the game\n    /// @param gameId is the game being played\n    function takeTurn(bytes32 gameId) public {\n        // can only play a turn if the caller is in the game\n        require(games[gameId].player1 == msg.sender || games[gameId].player2 == msg.sender, \"this isn't your game!\");\n        // must be callers turn to play\n        require(games[gameId].nextPlayer == msg.sender, \"its not your turn!\");\n        // game must still be in play\n        require(games[gameId].ended == false, \"this game has ended\");\n\n        // prepare next player for their turn\n        if (msg.sender == games[gameId].player1) {\n            games[gameId].nextPlayer = games[gameId].player2;\n        } else {\n            games[gameId].nextPlayer = games[gameId].player1;\n        }\n\n        }\n    /// @notice play your turn of the game\n    /// @param gameId is the game being ended\n    function endGame(bytes32 gameId) public {\n        // game can only end if someone has won\n        require(games[gameId].winner == msg.sender, \"this game aint over til somebody wins!\");\n        games[gameId].ended = true;\n        // tell client which game has ended and  who won it\n        emit GameHasEnded(gameId, games[gameId].winner);\n\n        //if there was a wager tramsfer it to the winner\n        if(msg.sender.send(games[gameId].wager)) {\n          games[gameId].wager = 0; //reset\n          emit WinningsTransferred(gameId, games[gameId].winner);\n        }\n    }\n}\n\ncontract Battleships is TurnBasedGame {\n\n    event GameInitialized(bytes32 indexed gameId, address indexed player1, string player1Alias, uint wager);\n    event GameJoined(bytes32 indexed gameId, address indexed player1, string player1Alias, address indexed player2, string player2Alias, uint wager);\n    event TurnTaken(address nextPlayer, bool targetHit);\n\n\n\n        /**\n     * Initialize a new game\n     * string player1Alias: Alias of the player creating the game\n     * bool playAsWhite: Pass true or false depending on if the creator will play as white\n     */\n    function initGame(string player1Alias, uint playerHand) public payable returns (bytes32) {\n        bytes32 gameId = super.initGame(player1Alias);\n\n        setPlayerHand(gameId, playerHand);\n        // Sent notification events\n        emit GameInitialized(gameId, games[gameId].player1, player1Alias, games[gameId].wager);\n        return gameId;\n    }\n\n    function setPlayerHand(bytes32 gameId, uint playerHand) public {\n        require(playerHand > 0, \"must be greater than zero\");\n        require(playerHand < 6, \"must be no greater than five\");\n        super.setPlayerHand(gameId, playerHand);\n    }\n\n\n    /**\n     * Join an initialized game\n     * bytes32 gameId: ID of the game to join\n     * string player2Alias: Alias of the player that is joining\n     */\n    function joinGame(bytes32 gameId, string player2Alias, uint playerHand) public payable {\n        super.joinGame(gameId, player2Alias);\n        setPlayerHand(gameId, playerHand);\n        // for this game the first to play is the entering challenger (player2)\n        games[gameId].nextPlayer = msg.sender;\n\n\n        emit GameJoined(gameId, games[gameId].player1, games[gameId].player1Alias, games[gameId].player2, player2Alias, games[gameId].wager);\n}\n\n    function takeTurn(bytes32 gameId, uint guess) public {\n        super.takeTurn(gameId);\n        uint secret;\n        bool targetHit = false;\n        if (msg.sender == games[gameId].player1) {\n            secret = games[gameId].player2Hand;\n        } else {\n            secret = games[gameId].player1Hand;\n        }\n\n        if (guess == secret) {\n          games[gameId].winner = msg.sender;\n          super.endGame(gameId);\n          targetHit = true;\n        }\n        emit TurnTaken(games[gameId].nextPlayer, targetHit);\n    }\n\n}\n",
  "sourcePath": "/Users/williamcragg/Repos/Consensys/truffle_react/contracts/Battleships.sol",
  "compiler": {
    "name": "solc",
    "version": "0.4.24+commit.e67f0147.Emscripten.clang"
  },
  "schemaVersion": "2.0.0",
  "updatedAt": "2018-08-28T00:46:19.863Z"
}